S021000041746D656761333238705F4932435F536C6176655F526561642E7372656355
S11300000C9434000C9449000C9449000C9449005D
S11300100C9449000C9449000C9449000C94490038
S11300200C9449000C9449000C9449000C94490028
S11300300C9449000C9449000C9449000C94490018
S11300400C9449000C9449000C9449000C94490008
S11300500C9449000C9449000C9449000C944900F8
S11300600C945A000C94490011241FBECFEFD8E021
S1130070DEBFCDBF11E0A0E0B1E0E8EEF0E002C0E9
S113008005900D92A230B107D9F70E944B000C9451
S113009072000C9400001AB8809100018093BA0099
S11300A0ECEBF0E080818160808378948081846CC3
S11300B08083FFCF1F920F920FB60F9211248F935C
S11300C0EF93FF9389B18093BB00ECEBF0E0808168
S11300D0846C8083FF91EF918F910F900FBE0F90EE
S10B00E01F901895F894FFCF5E
S10500E806000C
S9030000FC
