S022000041746D656761333238705F4932435F536C6176655F57726974652E73726563C5
S11300000C9434000C9449000C9449000C9449005D
S11300100C9449000C9449000C9449000C94490038
S11300200C9449000C9449000C9449000C94490028
S11300300C9449000C9449000C9449000C94490018
S11300400C9449000C9449000C9449000C94490008
S11300500C9449000C9449000C9449000C944900F8
S11300600C9449000C94490011241FBECFEFD8E032
S1130070DEBFCDBF11E0A0E0B1E0EAECF0E002C0E9
S113008005900D92A230B107D9F70E944B000C9451
S113009063000C9400008FEF8AB980910001809373
S11300A0BA00ECEBF0E024EC94E8ABEBB0E0208396
S11300B080818823ECF7908380818823ECF78C91EE
S10D00C080958BB9F4CFF894FFCFBC
S10500CA02002E
S9030000FC
