:100000000C9434000C9449000C9449000C94490061
:100010000C9449000C9449000C9449000C9449003C
:100020000C9449000C9449000C9449000C9449002C
:100030000C9449000C9449000C9449000C9449001C
:100040000C9449000C9449000C9449000C9449000C
:100050000C9449000C9449000C9449000C944900FC
:100060000C9449000C94490011241FBECFEFD8E036
:10007000DEBFCDBF11E0A0E0B1E0ECE3F1E002C0F3
:1000800005900D92A230B107D9F70E946A000C9436
:100090009C000C94000084EA8093BC00ECEBF0E040
:1000A00080818823ECF708958093BB0084E88093D7
:1000B000BC00ECEBF0E080818823ECF7089584E845
:1000C0008093BC00ECEBF0E080818823ECF780911A
:1000D000BB000895E9EBF0E080818C7F808387E4AA
:1000E0008093B800D0E00F2EFCEBEF2EF12CF02D1A
:1000F00014E90E944B00809100010E9454000E946C
:100100005F00C82FF7011083D81759F00E944B00E9
:10011000809101010E9454008C2F0E945400F7012D
:100120001083FFEF20E782E0F15020408040E1F7AC
:0C01300000C00000DC2FDDCFF894FFCFF2
:02013C000702B8
:00000001FF
